{
  "contractName": "Cruds",
  "abi": [
    {
      "inputs": [
        {
          "internalType": "uint256",
          "name": "",
          "type": "uint256"
        }
      ],
      "name": "doctors",
      "outputs": [
        {
          "internalType": "string",
          "name": "",
          "type": "string"
        }
      ],
      "stateMutability": "view",
      "type": "function"
    },
    {
      "inputs": [
        {
          "internalType": "uint256",
          "name": "",
          "type": "uint256"
        }
      ],
      "name": "patients",
      "outputs": [
        {
          "internalType": "string",
          "name": "",
          "type": "string"
        }
      ],
      "stateMutability": "view",
      "type": "function"
    },
    {
      "inputs": [
        {
          "internalType": "string",
          "name": "doc_cid",
          "type": "string"
        }
      ],
      "name": "addDoctor",
      "outputs": [],
      "stateMutability": "nonpayable",
      "type": "function"
    },
    {
      "inputs": [],
      "name": "getDoctor",
      "outputs": [
        {
          "internalType": "string[]",
          "name": "",
          "type": "string[]"
        }
      ],
      "stateMutability": "view",
      "type": "function"
    },
    {
      "inputs": [
        {
          "internalType": "string",
          "name": "patient_cid",
          "type": "string"
        }
      ],
      "name": "addPatient",
      "outputs": [],
      "stateMutability": "nonpayable",
      "type": "function"
    },
    {
      "inputs": [],
      "name": "getPatient",
      "outputs": [
        {
          "internalType": "string[]",
          "name": "",
          "type": "string[]"
        }
      ],
      "stateMutability": "view",
      "type": "function"
    },
    {
      "inputs": [
        {
          "internalType": "string",
          "name": "doc_cid",
          "type": "string"
        }
      ],
      "name": "removeDoctor",
      "outputs": [],
      "stateMutability": "nonpayable",
      "type": "function"
    }
  ],
  "bytecode": "0x608060405234801561000f575f80fd5b506111438061001d5f395ff3fe608060405234801561000f575f80fd5b506004361061007b575f3560e01c80637b0f9a36116100595780637b0f9a36146100e957806393119a8314610107578063a777908514610137578063fb87cf94146101535761007b565b80630be617001461007f5780633aaa59201461009b5780636efb1b84146100b9575b5f80fd5b61009960048036038101906100949190610923565b61016f565b005b6100a3610288565b6040516100b09190610a9f565b60405180910390f35b6100d360048036038101906100ce9190610af2565b61035b565b6040516100e09190610b65565b60405180910390f35b6100f1610400565b6040516100fe9190610a9f565b60405180910390f35b610121600480360381019061011c9190610af2565b6104d4565b60405161012e9190610b65565b60405180910390f35b610151600480360381019061014c9190610923565b61057a565b005b61016d60048036038101906101689190610923565b610662565b005b5f5b5f80549050811015610252575f80828154811061019157610190610b85565b5b905f5260205f200180546101a490610bdf565b80601f01602080910402602001604051908101604052809291908181526020018280546101d090610bdf565b801561021b5780601f106101f25761010080835404028352916020019161021b565b820191905f5260205f20905b8154815290600101906020018083116101fe57829003601f168201915b50505050509050828051906020012081805190602001200361023e575050610285565b50808061024a90610c3c565b915050610171565b505f81908060018154018082558091505060019003905f5260205f20015f9091909190915090816102839190610e20565b505b50565b60605f805480602002602001604051908101604052809291908181526020015f905b82821015610352578382905f5260205f200180546102c790610bdf565b80601f01602080910402602001604051908101604052809291908181526020018280546102f390610bdf565b801561033e5780601f106103155761010080835404028352916020019161033e565b820191905f5260205f20905b81548152906001019060200180831161032157829003601f168201915b5050505050815260200190600101906102aa565b50505050905090565b5f8181548110610369575f80fd5b905f5260205f20015f91509050805461038190610bdf565b80601f01602080910402602001604051908101604052809291908181526020018280546103ad90610bdf565b80156103f85780601f106103cf576101008083540402835291602001916103f8565b820191905f5260205f20905b8154815290600101906020018083116103db57829003601f168201915b505050505081565b60606001805480602002602001604051908101604052809291908181526020015f905b828210156104cb578382905f5260205f2001805461044090610bdf565b80601f016020809104026020016040519081016040528092919081815260200182805461046c90610bdf565b80156104b75780601f1061048e576101008083540402835291602001916104b7565b820191905f5260205f20905b81548152906001019060200180831161049a57829003601f168201915b505050505081526020019060010190610423565b50505050905090565b600181815481106104e3575f80fd5b905f5260205f20015f9150905080546104fb90610bdf565b80601f016020809104026020016040519081016040528092919081815260200182805461052790610bdf565b80156105725780601f1061054957610100808354040283529160200191610572565b820191905f5260205f20905b81548152906001019060200180831161055557829003601f168201915b505050505081565b5f5b5f8054905081101561065d5781805190602001205f82815481106105a3576105a2610b85565b5b905f5260205f20016040516105b89190610f8b565b60405180910390200361064a575f60015f805490506105d79190610fa1565b815481106105e8576105e7610b85565b5b905f5260205f20015f828154811061060357610602610b85565b5b905f5260205f200190816106179190610ffb565b505f805480610629576106286110e0565b5b600190038181905f5260205f20015f610642919061077e565b90555061065f565b808061065590610c3c565b91505061057c565b505b50565b5f5b600180549050811015610747575f6001828154811061068657610685610b85565b5b905f5260205f2001805461069990610bdf565b80601f01602080910402602001604051908101604052809291908181526020018280546106c590610bdf565b80156107105780601f106106e757610100808354040283529160200191610710565b820191905f5260205f20905b8154815290600101906020018083116106f357829003601f168201915b50505050509050828051906020012081805190602001200361073357505061077b565b50808061073f90610c3c565b915050610664565b50600181908060018154018082558091505060019003905f5260205f20015f9091909190915090816107799190610e20565b505b50565b50805461078a90610bdf565b5f825580601f1061079b57506107b8565b601f0160209004905f5260205f20908101906107b791906107bb565b5b50565b5b808211156107d2575f815f9055506001016107bc565b5090565b5f604051905090565b5f80fd5b5f80fd5b5f80fd5b5f80fd5b5f601f19601f8301169050919050565b7f4e487b71000000000000000000000000000000000000000000000000000000005f52604160045260245ffd5b610835826107ef565b810181811067ffffffffffffffff82111715610854576108536107ff565b5b80604052505050565b5f6108666107d6565b9050610872828261082c565b919050565b5f67ffffffffffffffff821115610891576108906107ff565b5b61089a826107ef565b9050602081019050919050565b828183375f83830152505050565b5f6108c76108c284610877565b61085d565b9050828152602081018484840111156108e3576108e26107eb565b5b6108ee8482856108a7565b509392505050565b5f82601f83011261090a576109096107e7565b5b813561091a8482602086016108b5565b91505092915050565b5f60208284031215610938576109376107df565b5b5f82013567ffffffffffffffff811115610955576109546107e3565b5b610961848285016108f6565b91505092915050565b5f81519050919050565b5f82825260208201905092915050565b5f819050602082019050919050565b5f81519050919050565b5f82825260208201905092915050565b5f5b838110156109ca5780820151818401526020810190506109af565b5f8484015250505050565b5f6109df82610993565b6109e9818561099d565b93506109f98185602086016109ad565b610a02816107ef565b840191505092915050565b5f610a1883836109d5565b905092915050565b5f602082019050919050565b5f610a368261096a565b610a408185610974565b935083602082028501610a5285610984565b805f5b85811015610a8d5784840389528151610a6e8582610a0d565b9450610a7983610a20565b925060208a01995050600181019050610a55565b50829750879550505050505092915050565b5f6020820190508181035f830152610ab78184610a2c565b905092915050565b5f819050919050565b610ad181610abf565b8114610adb575f80fd5b50565b5f81359050610aec81610ac8565b92915050565b5f60208284031215610b0757610b066107df565b5b5f610b1484828501610ade565b91505092915050565b5f82825260208201905092915050565b5f610b3782610993565b610b418185610b1d565b9350610b518185602086016109ad565b610b5a816107ef565b840191505092915050565b5f6020820190508181035f830152610b7d8184610b2d565b905092915050565b7f4e487b71000000000000000000000000000000000000000000000000000000005f52603260045260245ffd5b7f4e487b71000000000000000000000000000000000000000000000000000000005f52602260045260245ffd5b5f6002820490506001821680610bf657607f821691505b602082108103610c0957610c08610bb2565b5b50919050565b7f4e487b71000000000000000000000000000000000000000000000000000000005f52601160045260245ffd5b5f610c4682610abf565b91507fffffffffffffffffffffffffffffffffffffffffffffffffffffffffffffffff8203610c7857610c77610c0f565b5b600182019050919050565b5f819050815f5260205f209050919050565b5f6020601f8301049050919050565b5f82821b905092915050565b5f60088302610cdf7fffffffffffffffffffffffffffffffffffffffffffffffffffffffffffffffff82610ca4565b610ce98683610ca4565b95508019841693508086168417925050509392505050565b5f819050919050565b5f610d24610d1f610d1a84610abf565b610d01565b610abf565b9050919050565b5f819050919050565b610d3d83610d0a565b610d51610d4982610d2b565b848454610cb0565b825550505050565b5f90565b610d65610d59565b610d70818484610d34565b505050565b5b81811015610d9357610d885f82610d5d565b600181019050610d76565b5050565b601f821115610dd857610da981610c83565b610db284610c95565b81016020851015610dc1578190505b610dd5610dcd85610c95565b830182610d75565b50505b505050565b5f82821c905092915050565b5f610df85f1984600802610ddd565b1980831691505092915050565b5f610e108383610de9565b9150826002028217905092915050565b610e2982610993565b67ffffffffffffffff811115610e4257610e416107ff565b5b610e4c8254610bdf565b610e57828285610d97565b5f60209050601f831160018114610e88575f8415610e76578287015190505b610e808582610e05565b865550610ee7565b601f198416610e9686610c83565b5f5b82811015610ebd57848901518255600182019150602085019450602081019050610e98565b86831015610eda5784890151610ed6601f891682610de9565b8355505b6001600288020188555050505b505050505050565b5f81905092915050565b5f819050815f5260205f209050919050565b5f8154610f1781610bdf565b610f218186610eef565b9450600182165f8114610f3b5760018114610f5057610f82565b60ff1983168652811515820286019350610f82565b610f5985610ef9565b5f5b83811015610f7a57815481890152600182019150602081019050610f5b565b838801955050505b50505092915050565b5f610f968284610f0b565b915081905092915050565b5f610fab82610abf565b9150610fb683610abf565b9250828203905081811115610fce57610fcd610c0f565b5b92915050565b5f81549050610fe281610bdf565b9050919050565b5f819050815f5260205f209050919050565b8181036110095750506110de565b61101282610fd4565b67ffffffffffffffff81111561102b5761102a6107ff565b5b6110358254610bdf565b611040828285610d97565b5f601f83116001811461106d575f841561105b578287015490505b6110658582610e05565b8655506110d7565b601f19841661107b87610fe9565b965061108686610c83565b5f5b828110156110ad57848901548255600182019150600185019450602081019050611088565b868310156110ca57848901546110c6601f891682610de9565b8355505b6001600288020188555050505b5050505050505b565b7f4e487b71000000000000000000000000000000000000000000000000000000005f52603160045260245ffdfea2646970667358221220b7e1515a4e6bd074d865b7acec085b22dc30cddcfb37284ddb4c00e643cf98be64736f6c63430008150033",
  "immutableReferences": {},
  "source": "// SPDX-License-Identifier: MIT\npragma solidity ^0.8.19;\n\ncontract Cruds {\n    string[] public doctors;\n    string[] public patients;\n\n    function addDoctor(string memory doc_cid) public {\n        for (uint i = 0; i < doctors.length; i++) {\n            string memory x = doctors[i];\n            if (keccak256(bytes(x)) == keccak256(bytes(doc_cid))) return;\n        }\n        doctors.push(doc_cid);\n    }\n\n    function getDoctor() public view returns (string[] memory) {\n        return doctors;\n    }\n\n    function addPatient(string memory patient_cid) public {\n        for (uint i = 0; i < patients.length; i++) {\n            string memory x = patients[i];\n            if (keccak256(bytes(x)) == keccak256(bytes(patient_cid))) return;\n        }\n        patients.push(patient_cid);\n    }\n\n    function getPatient() public view returns (string[] memory) {\n        return patients;\n    }\n\n    function removeDoctor(string memory doc_cid) public {\n        for (uint i = 0; i < doctors.length; i++) {\n            if (keccak256(bytes(doctors[i])) == keccak256(bytes(doc_cid))) {\n                doctors[i] = doctors[doctors.length - 1];\n                doctors.pop();\n                return;\n            }\n        }\n    }\n}\n",
  "sourcePath": "/Users/sahiru/Final Project/Healthcare Data management sytem/backend/contracts/Cruds.sol",
  "compiler": {
    "name": "solc",
    "version": "0.8.21+commit.d9974bed.Emscripten.clang"
  },
  "schemaVersion": "3.4.16",
  "updatedAt": "2024-03-13T15:28:48.754Z",
  "devdoc": {
    "kind": "dev",
    "methods": {},
    "version": 1
  },
  "userdoc": {
    "kind": "user",
    "methods": {},
    "version": 1
  }
}