{
  "contractName": "Cruds",
  "abi": [
    {
      "inputs": [
        {
          "internalType": "string",
          "name": "doc_cid",
          "type": "string"
        }
      ],
      "name": "addDoctor",
      "outputs": [],
      "stateMutability": "nonpayable",
      "type": "function"
    },
    {
      "inputs": [
        {
          "internalType": "string",
          "name": "doc_cid",
          "type": "string"
        }
      ],
      "name": "removeDoctor",
      "outputs": [],
      "stateMutability": "nonpayable",
      "type": "function"
    },
    {
      "inputs": [],
      "name": "getDoctor",
      "outputs": [
        {
          "internalType": "string[]",
          "name": "",
          "type": "string[]"
        }
      ],
      "stateMutability": "view",
      "type": "function"
    },
    {
      "inputs": [
        {
          "internalType": "string",
          "name": "patient_cid",
          "type": "string"
        }
      ],
      "name": "addPatient",
      "outputs": [],
      "stateMutability": "nonpayable",
      "type": "function"
    },
    {
      "inputs": [],
      "name": "getPatient",
      "outputs": [
        {
          "internalType": "string[]",
          "name": "",
          "type": "string[]"
        }
      ],
      "stateMutability": "view",
      "type": "function"
    }
  ],
  "bytecode": "0x608060405234801561000f575f80fd5b50610eb58061001d5f395ff3fe608060405234801561000f575f80fd5b5060043610610055575f3560e01c80630be61700146100595780633aaa5920146100755780637b0f9a3614610093578063a7779085146100b1578063fb87cf94146100cd575b5f80fd5b610073600480360381019061006e9190610752565b6100e9565b005b61007d610202565b60405161008a91906108ce565b60405180910390f35b61009b6102d5565b6040516100a891906108ce565b60405180910390f35b6100cb60048036038101906100c69190610752565b6103a9565b005b6100e760048036038101906100e29190610752565b610491565b005b5f5b5f805490508110156101cc575f80828154811061010b5761010a6108ee565b5b905f5260205f2001805461011e90610948565b80601f016020809104026020016040519081016040528092919081815260200182805461014a90610948565b80156101955780601f1061016c57610100808354040283529160200191610195565b820191905f5260205f20905b81548152906001019060200180831161017857829003601f168201915b5050505050905082805190602001208180519060200120036101b85750506101ff565b5080806101c4906109ae565b9150506100eb565b505f81908060018154018082558091505060019003905f5260205f20015f9091909190915090816101fd9190610b92565b505b50565b60605f805480602002602001604051908101604052809291908181526020015f905b828210156102cc578382905f5260205f2001805461024190610948565b80601f016020809104026020016040519081016040528092919081815260200182805461026d90610948565b80156102b85780601f1061028f576101008083540402835291602001916102b8565b820191905f5260205f20905b81548152906001019060200180831161029b57829003601f168201915b505050505081526020019060010190610224565b50505050905090565b60606001805480602002602001604051908101604052809291908181526020015f905b828210156103a0578382905f5260205f2001805461031590610948565b80601f016020809104026020016040519081016040528092919081815260200182805461034190610948565b801561038c5780601f106103635761010080835404028352916020019161038c565b820191905f5260205f20905b81548152906001019060200180831161036f57829003601f168201915b5050505050815260200190600101906102f8565b50505050905090565b5f5b5f8054905081101561048c5781805190602001205f82815481106103d2576103d16108ee565b5b905f5260205f20016040516103e79190610cfd565b604051809103902003610479575f60015f805490506104069190610d13565b81548110610417576104166108ee565b5b905f5260205f20015f8281548110610432576104316108ee565b5b905f5260205f200190816104469190610d6d565b505f80548061045857610457610e52565b5b600190038181905f5260205f20015f61047191906105ad565b90555061048e565b8080610484906109ae565b9150506103ab565b505b50565b5f5b600180549050811015610576575f600182815481106104b5576104b46108ee565b5b905f5260205f200180546104c890610948565b80601f01602080910402602001604051908101604052809291908181526020018280546104f490610948565b801561053f5780601f106105165761010080835404028352916020019161053f565b820191905f5260205f20905b81548152906001019060200180831161052257829003601f168201915b5050505050905082805190602001208180519060200120036105625750506105aa565b50808061056e906109ae565b915050610493565b50600181908060018154018082558091505060019003905f5260205f20015f9091909190915090816105a89190610b92565b505b50565b5080546105b990610948565b5f825580601f106105ca57506105e7565b601f0160209004905f5260205f20908101906105e691906105ea565b5b50565b5b80821115610601575f815f9055506001016105eb565b5090565b5f604051905090565b5f80fd5b5f80fd5b5f80fd5b5f80fd5b5f601f19601f8301169050919050565b7f4e487b71000000000000000000000000000000000000000000000000000000005f52604160045260245ffd5b6106648261061e565b810181811067ffffffffffffffff821117156106835761068261062e565b5b80604052505050565b5f610695610605565b90506106a1828261065b565b919050565b5f67ffffffffffffffff8211156106c0576106bf61062e565b5b6106c98261061e565b9050602081019050919050565b828183375f83830152505050565b5f6106f66106f1846106a6565b61068c565b9050828152602081018484840111156107125761071161061a565b5b61071d8482856106d6565b509392505050565b5f82601f83011261073957610738610616565b5b81356107498482602086016106e4565b91505092915050565b5f602082840312156107675761076661060e565b5b5f82013567ffffffffffffffff81111561078457610783610612565b5b61079084828501610725565b91505092915050565b5f81519050919050565b5f82825260208201905092915050565b5f819050602082019050919050565b5f81519050919050565b5f82825260208201905092915050565b5f5b838110156107f95780820151818401526020810190506107de565b5f8484015250505050565b5f61080e826107c2565b61081881856107cc565b93506108288185602086016107dc565b6108318161061e565b840191505092915050565b5f6108478383610804565b905092915050565b5f602082019050919050565b5f61086582610799565b61086f81856107a3565b935083602082028501610881856107b3565b805f5b858110156108bc578484038952815161089d858261083c565b94506108a88361084f565b925060208a01995050600181019050610884565b50829750879550505050505092915050565b5f6020820190508181035f8301526108e6818461085b565b905092915050565b7f4e487b71000000000000000000000000000000000000000000000000000000005f52603260045260245ffd5b7f4e487b71000000000000000000000000000000000000000000000000000000005f52602260045260245ffd5b5f600282049050600182168061095f57607f821691505b6020821081036109725761097161091b565b5b50919050565b7f4e487b71000000000000000000000000000000000000000000000000000000005f52601160045260245ffd5b5f819050919050565b5f6109b8826109a5565b91507fffffffffffffffffffffffffffffffffffffffffffffffffffffffffffffffff82036109ea576109e9610978565b5b600182019050919050565b5f819050815f5260205f209050919050565b5f6020601f8301049050919050565b5f82821b905092915050565b5f60088302610a517fffffffffffffffffffffffffffffffffffffffffffffffffffffffffffffffff82610a16565b610a5b8683610a16565b95508019841693508086168417925050509392505050565b5f819050919050565b5f610a96610a91610a8c846109a5565b610a73565b6109a5565b9050919050565b5f819050919050565b610aaf83610a7c565b610ac3610abb82610a9d565b848454610a22565b825550505050565b5f90565b610ad7610acb565b610ae2818484610aa6565b505050565b5b81811015610b0557610afa5f82610acf565b600181019050610ae8565b5050565b601f821115610b4a57610b1b816109f5565b610b2484610a07565b81016020851015610b33578190505b610b47610b3f85610a07565b830182610ae7565b50505b505050565b5f82821c905092915050565b5f610b6a5f1984600802610b4f565b1980831691505092915050565b5f610b828383610b5b565b9150826002028217905092915050565b610b9b826107c2565b67ffffffffffffffff811115610bb457610bb361062e565b5b610bbe8254610948565b610bc9828285610b09565b5f60209050601f831160018114610bfa575f8415610be8578287015190505b610bf28582610b77565b865550610c59565b601f198416610c08866109f5565b5f5b82811015610c2f57848901518255600182019150602085019450602081019050610c0a565b86831015610c4c5784890151610c48601f891682610b5b565b8355505b6001600288020188555050505b505050505050565b5f81905092915050565b5f819050815f5260205f209050919050565b5f8154610c8981610948565b610c938186610c61565b9450600182165f8114610cad5760018114610cc257610cf4565b60ff1983168652811515820286019350610cf4565b610ccb85610c6b565b5f5b83811015610cec57815481890152600182019150602081019050610ccd565b838801955050505b50505092915050565b5f610d088284610c7d565b915081905092915050565b5f610d1d826109a5565b9150610d28836109a5565b9250828203905081811115610d4057610d3f610978565b5b92915050565b5f81549050610d5481610948565b9050919050565b5f819050815f5260205f209050919050565b818103610d7b575050610e50565b610d8482610d46565b67ffffffffffffffff811115610d9d57610d9c61062e565b5b610da78254610948565b610db2828285610b09565b5f601f831160018114610ddf575f8415610dcd578287015490505b610dd78582610b77565b865550610e49565b601f198416610ded87610d5b565b9650610df8866109f5565b5f5b82811015610e1f57848901548255600182019150600185019450602081019050610dfa565b86831015610e3c5784890154610e38601f891682610b5b565b8355505b6001600288020188555050505b5050505050505b565b7f4e487b71000000000000000000000000000000000000000000000000000000005f52603160045260245ffdfea26469706673582212208e031d60ae635fec4bcca17ffcad6b12a1e043df17abb5cef9e61159a5cffcdd64736f6c63430008140033",
  "immutableReferences": {},
  "source": "// SPDX-License-Identifier: MIT\npragma solidity ^0.8.19;\n\ncontract Cruds {\n    string[] doctors;\n    string[] patients;\n\n    function addDoctor(string memory doc_cid) public {\n        for (uint i = 0; i < doctors.length; i++) {\n            string memory x = doctors[i];\n            if (keccak256(bytes(x)) == keccak256(bytes(doc_cid))) return;\n        }\n        doctors.push(doc_cid);\n    }\n    function removeDoctor(string memory doc_cid) public {\n        for (uint i = 0; i < doctors.length; i++) {\n            if (keccak256(bytes(doctors[i])) == keccak256(bytes(doc_cid))) {\n                doctors[i] = doctors[doctors.length - 1];\n                doctors.pop();\n                return;\n            }\n        }\n    }\n    function getDoctor() public view returns (string[] memory) {\n        return doctors;\n    }\n\n    function addPatient(string memory patient_cid) public {\n        for (uint i = 0; i < patients.length; i++) {\n            string memory x = patients[i];\n            if (keccak256(bytes(x)) == keccak256(bytes(patient_cid))) return;\n        }\n        patients.push(patient_cid);\n    }\n\n    function getPatient() public view returns (string[] memory) {\n        return patients;\n    }\n}\n",
  "sourcePath": "/Users/sahiru/Final Project/Healthcare Data management sytem/backend/contracts/Cruds.sol",
  "compiler": {
    "name": "solc",
    "version": "0.8.20+commit.a1b79de6.Emscripten.clang"
  },
  "schemaVersion": "3.4.16",
  "updatedAt": "2024-03-14T04:49:13.486Z",
  "devdoc": {
    "kind": "dev",
    "methods": {},
    "version": 1
  },
  "userdoc": {
    "kind": "user",
    "methods": {},
    "version": 1
  }
}